{
  "contractName": "Donation",
  "abi": [
    {
      "constant": true,
      "inputs": [],
      "name": "totalAmount",
      "outputs": [
        {
          "name": "",
          "type": "uint256"
        }
      ],
      "payable": false,
      "stateMutability": "view",
      "type": "function"
    },
    {
      "constant": true,
      "inputs": [
        {
          "name": "",
          "type": "address"
        },
        {
          "name": "",
          "type": "uint256"
        }
      ],
      "name": "donor_money",
      "outputs": [
        {
          "name": "",
          "type": "uint256"
        }
      ],
      "payable": false,
      "stateMutability": "view",
      "type": "function"
    },
    {
      "constant": true,
      "inputs": [
        {
          "name": "",
          "type": "uint256"
        }
      ],
      "name": "donors",
      "outputs": [
        {
          "name": "donor_address",
          "type": "address"
        },
        {
          "name": "donate_amount",
          "type": "uint256"
        },
        {
          "name": "donate_time",
          "type": "uint256"
        }
      ],
      "payable": false,
      "stateMutability": "view",
      "type": "function"
    },
    {
      "constant": true,
      "inputs": [],
      "name": "numDonor",
      "outputs": [
        {
          "name": "",
          "type": "uint256"
        }
      ],
      "payable": false,
      "stateMutability": "view",
      "type": "function"
    },
    {
      "constant": true,
      "inputs": [],
      "name": "owner",
      "outputs": [
        {
          "name": "",
          "type": "address"
        }
      ],
      "payable": false,
      "stateMutability": "view",
      "type": "function"
    },
    {
      "constant": true,
      "inputs": [],
      "name": "projectName",
      "outputs": [
        {
          "name": "",
          "type": "string"
        }
      ],
      "payable": false,
      "stateMutability": "view",
      "type": "function"
    },
    {
      "inputs": [
        {
          "name": "name",
          "type": "string"
        }
      ],
      "payable": false,
      "stateMutability": "nonpayable",
      "type": "constructor"
    },
    {
      "anonymous": false,
      "inputs": [
        {
          "indexed": false,
          "name": "donor",
          "type": "address"
        },
        {
          "indexed": false,
          "name": "amount",
          "type": "uint256"
        },
        {
          "indexed": false,
          "name": "time",
          "type": "uint256"
        },
        {
          "indexed": false,
          "name": "num",
          "type": "uint256"
        },
        {
          "indexed": false,
          "name": "totalamount",
          "type": "uint256"
        }
      ],
      "name": "Donated",
      "type": "event"
    },
    {
      "anonymous": false,
      "inputs": [
        {
          "indexed": false,
          "name": "beneficiary",
          "type": "address"
        },
        {
          "indexed": false,
          "name": "amount",
          "type": "uint256"
        }
      ],
      "name": "TransferDonation",
      "type": "event"
    },
    {
      "anonymous": false,
      "inputs": [
        {
          "indexed": false,
          "name": "donor",
          "type": "address"
        },
        {
          "indexed": false,
          "name": "amount",
          "type": "uint256[]"
        }
      ],
      "name": "DonorMoney",
      "type": "event"
    },
    {
      "constant": false,
      "inputs": [],
      "name": "donate",
      "outputs": [],
      "payable": true,
      "stateMutability": "payable",
      "type": "function"
    },
    {
      "constant": false,
      "inputs": [
        {
          "name": "donor",
          "type": "address"
        }
      ],
      "name": "checkMoney",
      "outputs": [],
      "payable": false,
      "stateMutability": "nonpayable",
      "type": "function"
    },
    {
      "constant": false,
      "inputs": [
        {
          "name": "beneficiary",
          "type": "address"
        }
      ],
      "name": "transferDonation",
      "outputs": [],
      "payable": false,
      "stateMutability": "nonpayable",
      "type": "function"
    },
    {
      "constant": false,
      "inputs": [],
      "name": "kill",
      "outputs": [],
      "payable": false,
      "stateMutability": "nonpayable",
      "type": "function"
    }
  ],
  "bytecode": "0x608060405262278d0060035534801561001757600080fd5b50604051610b18380380610b1883398101806040528101908080518201929190505050336000806101000a81548173ffffffffffffffffffffffffffffffffffffffff021916908373ffffffffffffffffffffffffffffffffffffffff16021790555080600190805190602001906100909291906100c9565b5060006002819055506000600681905550426004819055506000600560006101000a81548160ff0219169083151502179055505061016e565b828054600181600116156101000203166002900490600052602060002090601f016020900481019282601f1061010a57805160ff1916838001178555610138565b82800160010185558215610138579182015b8281111561013757825182559160200191906001019061011c565b5b5090506101459190610149565b5090565b61016b91905b8082111561016757600081600090555060010161014f565b5090565b90565b61099b8061017d6000396000f3006080604052600436106100a4576000357c0100000000000000000000000000000000000000000000000000000000900463ffffffff1680631a39d8ef146100a95780632eb210f8146100d45780633dda4e0a1461011757806341c0e1b5146101785780634abfa1631461018f578063572cc1ad1461020a5780638da5cb5b146102355780639a33e3001461028c578063b6b5ef2a1461031c578063ed88c68e1461035f575b600080fd5b3480156100b557600080fd5b506100be610369565b6040518082815260200191505060405180910390f35b3480156100e057600080fd5b50610115600480360381019080803573ffffffffffffffffffffffffffffffffffffffff16906020019092919050505061036f565b005b34801561012357600080fd5b50610162600480360381019080803573ffffffffffffffffffffffffffffffffffffffff16906020019092919080359060200190929190505050610459565b6040518082815260200191505060405180910390f35b34801561018457600080fd5b5061018d610489565b005b34801561019b57600080fd5b506101ba6004803603810190808035906020019092919050505061051e565b604051808473ffffffffffffffffffffffffffffffffffffffff1673ffffffffffffffffffffffffffffffffffffffff168152602001838152602001828152602001935050505060405180910390f35b34801561021657600080fd5b5061021f610568565b6040518082815260200191505060405180910390f35b34801561024157600080fd5b5061024a61056e565b604051808273ffffffffffffffffffffffffffffffffffffffff1673ffffffffffffffffffffffffffffffffffffffff16815260200191505060405180910390f35b34801561029857600080fd5b506102a1610593565b6040518080602001828103825283818151815260200191508051906020019080838360005b838110156102e15780820151818401526020810190506102c6565b50505050905090810190601f16801561030e5780820380516001836020036101000a031916815260200191505b509250505060405180910390f35b34801561032857600080fd5b5061035d600480360381019080803573ffffffffffffffffffffffffffffffffffffffff169060200190929190505050610631565b005b61036761077c565b005b60065481565b7f4d7aebde5fff0fed777b8f4fa2a54fb223df54af4672f533eca8f7dfec1049cf81600860008473ffffffffffffffffffffffffffffffffffffffff1673ffffffffffffffffffffffffffffffffffffffff168152602001908152602001600020604051808373ffffffffffffffffffffffffffffffffffffffff1673ffffffffffffffffffffffffffffffffffffffff16815260200180602001828103825283818154815260200191508054801561044757602002820191906000526020600020905b815481526020019060010190808311610433575b5050935050505060405180910390a150565b60086020528160005260406000208181548110151561047457fe5b90600052602060002001600091509150505481565b6000809054906101000a900473ffffffffffffffffffffffffffffffffffffffff1673ffffffffffffffffffffffffffffffffffffffff163373ffffffffffffffffffffffffffffffffffffffff161415156104e457600080fd5b6000809054906101000a900473ffffffffffffffffffffffffffffffffffffffff1673ffffffffffffffffffffffffffffffffffffffff16ff5b60076020528060005260406000206000915090508060000160009054906101000a900473ffffffffffffffffffffffffffffffffffffffff16908060010154908060020154905083565b60025481565b6000809054906101000a900473ffffffffffffffffffffffffffffffffffffffff1681565b60018054600181600116156101000203166002900480601f0160208091040260200160405190810160405280929190818152602001828054600181600116156101000203166002900480156106295780601f106105fe57610100808354040283529160200191610629565b820191906000526020600020905b81548152906001019060200180831161060c57829003601f168201915b505050505081565b6000809054906101000a900473ffffffffffffffffffffffffffffffffffffffff1673ffffffffffffffffffffffffffffffffffffffff163373ffffffffffffffffffffffffffffffffffffffff1614151561068c57600080fd5b600560009054906101000a900460ff161515156106a857600080fd5b6001600560006101000a81548160ff0219169083151502179055508073ffffffffffffffffffffffffffffffffffffffff166108fc6006549081150290604051600060405180830381858888f1935050505015801561070b573d6000803e3d6000fd5b507fa98e52a5b39b460664f344103e62655f6251a50db1c2ad2d6d4a42c936c6540c81600654604051808373ffffffffffffffffffffffffffffffffffffffff1673ffffffffffffffffffffffffffffffffffffffff1681526020018281526020019250505060405180910390a150565b6000600560009054906101000a900460ff1615151561079a57600080fd5b60076000600260008154809291906001019190505581526020019081526020016000209050338160000160006101000a81548173ffffffffffffffffffffffffffffffffffffffff021916908373ffffffffffffffffffffffffffffffffffffffff1602179055503481600101819055504281600201819055508060010154600660008282540192505081905550600860008260000160009054906101000a900473ffffffffffffffffffffffffffffffffffffffff1673ffffffffffffffffffffffffffffffffffffffff1673ffffffffffffffffffffffffffffffffffffffff168152602001908152602001600020816001015490806001815401808255809150509060018203906000526020600020016000909192909190915055507f5a6bd9c92682eca6be18f65696b3310b13970a058f992be29c8c64860b4dd6478160000160009054906101000a900473ffffffffffffffffffffffffffffffffffffffff1682600101548360020154600254600654604051808673ffffffffffffffffffffffffffffffffffffffff1673ffffffffffffffffffffffffffffffffffffffff1681526020018581526020018481526020018381526020018281526020019550505050505060405180910390a1505600a165627a7a723058207be273bc0a22233a497cf098d5a69e10fd945e383d94fa9d2473c26c364e041d0029",
  "source": "pragma solidity ^0.4.23;\r\n\r\ncontract Donation {\r\n\r\n    // 捐款人\r\n    struct Donor{\r\n        address donor_address;\r\n        uint donate_amount;\r\n        uint donate_time;\r\n    }\r\n\r\n    address public owner; // 援助計畫單位\r\n    string public projectName; // 援助計畫名稱\r\n    uint public numDonor; // 捐款人數\r\n    uint duration = 30 days; // 援助計畫持續時間\r\n    uint start_donation_time; // 計畫開始時間(Unix Time)\r\n    bool stop_donation; // 每月owner將捐款送出\r\n    uint public totalAmount; // 捐款總額\r\n\r\n    mapping(uint => Donor) public donors;\r\n    mapping(address => uint[]) public donor_money;\r\n\r\n    event Donated(address donor, uint amount, uint time, uint num, uint totalamount);\r\n    event TransferDonation(address beneficiary, uint amount);\r\n    event DonorMoney(address donor, uint[] amount);\r\n\r\n    modifier onlyOwner() {\r\n        require(msg.sender == owner);\r\n        _;\r\n    }\r\n\r\n    constructor(string name) public {\r\n        owner = msg.sender;\r\n        projectName = name;\r\n        numDonor = 0;\r\n        totalAmount = 0;\r\n        start_donation_time = now;\r\n        stop_donation = false;\r\n    }\r\n\r\n    function donate() public payable {\r\n        require(!stop_donation);\r\n\r\n        Donor storage person = donors[numDonor++];\r\n        person.donor_address = msg.sender;\r\n        person.donate_amount = msg.value;\r\n        person.donate_time = now;\r\n        totalAmount += person.donate_amount;\r\n        donor_money[person.donor_address].push(person.donate_amount);\r\n\r\n        emit Donated(person.donor_address, person.donate_amount, person.donate_time, numDonor, totalAmount);\r\n    }\r\n\r\n    function checkMoney(address donor) public {\r\n        emit DonorMoney(donor, donor_money[donor]);\r\n    }\r\n\r\n    function transferDonation(address beneficiary) public onlyOwner {\r\n        require(!stop_donation);\r\n        // require(now >= (start_donation_time + duration));\r\n\r\n        stop_donation = true;\r\n        beneficiary.transfer(totalAmount);\r\n\r\n        emit TransferDonation(beneficiary, totalAmount);\r\n    }\r\n\r\n    function kill() public onlyOwner {\r\n        selfdestruct(owner);\r\n    }\r\n}\r\n",
  "sourcePath": "D:\\donation_Dapp\\contracts\\Donation.sol",
  "compiler": {
    "name": "solc",
    "version": "0.4.23+commit.124ca40d.Emscripten.clang"
  },
  "schemaVersion": "2.0.0",
  "updatedAt": "2019-05-15T08:15:16.869Z"
}